:100000000C9434000C943E000C943E000C943E0082
:100010000C943E000C943E000C943E000C943E0068
:100020000C943E000C943E000C943E000C943E0058
:100030000C943E000C943E000C943E000C943E0048
:100040000C943E000C943E000C943E000C943E0038
:100050000C943E000C943E000C943E000C943E0028
:100060000C943E000C943E0011241FBECFEFD8E04C
:10007000DEBFCDBF0E94B5000C9492020C9400002C
:10008000CF92DF92EF92FF92662311F0282F01C0EA
:1000900020E040E050E0BA010BC04F5F5F4F6F4F70
:1000A0007F4F413599EA59079BEA6907710591F13C
:1000B00093B198232913F1CF93B1982329131BC02F
:1000C000403599EA59079BEA6907710539F1E0E083
:1000D000F0E00BC04F5F5F4F6F4F7F4F403599EAA5
:1000E00059079BEA69077105E9F0319693B19823A6
:1000F000291781F302C0E0E0F0E081E18E9FB001BA
:100100008F9F700D1124605F7F4F80E090E00E9410
:100110006E010BC060E070E0CB0107C060E070E0F2
:10012000CB0103C060E070E0CB01FF90EF90DF9067
:10013000CF90089500C0589A83E08A95F1F70000A7
:1001400058980895CF93DF93C82FD62F0E949A0016
:100150006D2F8C2F0E94400026E933E44BE85CE3CE
:100160000E94D401DF91CF9108958EEF84B98FEF73
:100170008AB987BD83E284BD89E085BD8FE19EE4B5
:10018000909387008093860082EA8093800089E1C3
:100190008093810078948AEF88BD599A5A98CAE86A
:1001A000D0E008E810E00F2EF8E98F2EF8E09F2E3F
:1001B000F02D0F2EAA24AA94F5E0BF2EF02D0F2EBD
:1001C000FAE5CF2EF5E0DF2EF02D0F2EF7E1EF2E22
:1001D000F2E0FF2EF02D0F2EF1ED2F2E332433946D
:1001E000F02DF982E8822FEB8AED90E021508040DB
:1001F0009040E1F700C0000061E081E00E94A200B1
:100200002B013C0120E030E040E051E40E94CF01AE
:10021000181614F5F8019182808220E030E040E762
:1002200051E4C301B2010E94CF01181694F483EC8B
:1002300099E00197F1F700C0000061E081E00E94C1
:10024000A20020E030E040E751E40E94CF01181600
:1002500074F3F801B182A082D982C882FFEB2AED43
:1002600080E0F15020408040E1F700C0000061E0F4
:1002700081E00E94A2002B013C0120E030E040EA36
:1002800051E40E94690188230CF0ABCFF801318260
:10029000208220E030E048E452E4C301B2010E9431
:1002A0006901882394F483EC99E00197F1F700C089
:1002B000000061E081E00E94A20020E030E048E41C
:1002C00052E40E946901882374F3F801B182A0828C
:1002D00088CF0E94AB0108F481E00895E89409C03A
:1002E00097FB3EF490958095709561957F4F8F4F69
:1002F0009F4F9923A9F0F92F96E9BB279395F6957F
:10030000879577956795B795F111F8CFFAF4BB0FFC
:1003100011F460FF1BC06F5F7F4F8F4F9F4F16C060
:10032000882311F096E911C0772321F09EE8872FEA
:10033000762F05C0662371F096E8862F70E060E0A6
:100340002AF09A95660F771F881FDAF7880F96951F
:10035000879597F90895990F0008550FAA0BE0E8C3
:10036000FEEF16161706E807F907C0F01216130677
:10037000E407F50798F0621B730B840B950B39F4B7
:100380000A2661F0232B242B252B21F408950A261D
:1003900009F4A140A6958FEF811D811D08950E944B
:1003A000AB0108F48FEF08950E94E7010C94580206
:1003B0000E944A0238F00E94510220F0952311F069
:1003C0000C9441020C94470211240C948C020E945C
:1003D000690270F3959FC1F3950F50E0551F629F1E
:1003E000F001729FBB27F00DB11D639FAA27F00D8E
:1003F000B11DAA1F649F6627B00DA11D661F829FB5
:100400002227B00DA11D621F739FB00DA11D621F99
:10041000839FA00D611D221F749F3327A00D611DB6
:10042000231F849F600D211D822F762F6A2F112498
:100430009F5750409AF0F1F088234AF0EE0FFF1FCB
:10044000BB1F661F771F881F91505040A9F79E3F22
:10045000510580F00C9441020C948C025F3FE4F350
:10046000983ED4F3869577956795B795F795E79578
:100470009F5FC1F7FE2B880F911D9695879597F981
:10048000089597F99F6780E870E060E008959FEF16
:1004900080EC089500240A9416161706180609061B
:1004A000089500240A9412161306140605060895EA
:1004B000092E0394000C11F4882352F0BB0F40F472
:1004C000BF2B11F460FF04C06F5F7F4F8F4F9F4FB2
:1004D000089557FD9058440F551F59F05F3F71F034
:1004E0004795880F97FB991F61F09F3F79F087959B
:1004F0000895121613061406551FF2CF4695F1DF24
:1005000008C0161617061806991FF1CF86957105B3
:10051000610508940895E894BB2766277727CB01E7
:0805200097F90895F894FFCF4C
:00000001FF
